:0C0000000C9473000C9400000C940000A1
:10000C000C9400000C9400000C949F000C940000C5
:10001C000C9400000C9400000C9400000C94000054
:10002C000C9400000C9400000C9400000C94000044
:10003C000C9400000C9400000C9400000C94000034
:10004C000C9400000C940000060909060000000046
:10005C006400C80090012003F8FFFCFFFEFFFFFFC7
:10006C000000000000000000252E34692F252E32E0
:10007C00692F252E3269200053554E004D4F4E00EE
:10008C0054554500574544005448550046524900C4
:10009C0053415400252E32693A252E32693A252EC9
:1000AC00326920252E3166004320200080C02D4E61
:1000BC00414E000001002D4E414E00494E460000BD
:1000CC00070007006C0004006002B4000200830209
:1000DC00B80001008A02C0000000F894EE27ECBBC7
:1000EC00F1E0F5BFE5BF8DE0A2E0BB27ED938A956B
:1000FC00E9F780E098E0A0E6ED930197E9F7ECECE6
:10010C00F0E085919591009761F0A591B5910590DE
:10011C001590BF01F00105900D920197E1F7FB01DD
:10012C00F0CFEFE5EDBFE8E0EEBFC0E6D2E00C9417
:10013C00BE00EA93EFB7EA93E0E07E1618F0EAE32C
:10014C00E71508F402C073940FC0EBE37E1660F061
:10015C0077244394E41540F444245394E7E1E515E3
:10016C0018F455248394B394E991EFBFE991189551
:10017C00E8EFEABBE7E0EBBBEFEFE7BBE0E0E8BBA7
:10018C00EFEFE4BBE0E0E5BBEFEFE1BBE0E0E2BBAF
:10019C00E3BFE8EDE2BFE0E0ECBFEFBDEEBDEDBDCF
:1001AC00ECBDE7BDE6BDEBBDEABDE9BDE8BDE8E0F1
:1001BC00E2BDE5E0E5BDE0E0E4BDE3BDE0E4E9BFC0
:1001CC00E0E0E5BFE4BFEAB9E0E8E8B9E0E0E0BFB1
:1001DC00E6B9EDB9E6BF0E94620DE0E0EA93EA935E
:1001EC00A0E09CD40E94BD0DA0E10E94F006E4E5C5
:1001FC00F0E0FA93EA93A0E077D40E94B1067894E9
:10020C00E5E0F0E0FA93EA93E4E0F0E0FA93EA93A5
:10021C00A7E0B0E09CD4EBE0F0E0FA93EA93E8E0DE
:10022C00F0E0FA93EA93E9E0F0E0FA93EA93A6E0BF
:10023C00B0E0A5D40E94B40BE03029F4A0E0B0E00B
:10024C00E4E10E94BD1001D0FFCFC9D0E091820241
:10025C00E03009F0C3C0A0E0B0E0F8D4E0936D0248
:10026C00F0936E0260936F0270937002A72DBB2700
:10027C00EAE0F0E00E94431035977CF40E94B90B41
:10028C000E94B40B0E94C20B0E94E20F0E949A10B3
:10029C00E92D0E94CB0BE82D1FC00E94B40B0E94CD
:1002AC00C20BFA93EA939A928A92ECE0F0E0FA93FA
:1002BC00EA93EAE0F0E0FA93EA93A1E8B2E02BD1FA
:1002CC000E94B90BF601662777270E949A10EA2D37
:1002DC000E94CB0BE0918102FF27662777270E94B3
:1002EC009A108CE00E948B0A6096E0E00E94D10B81
:1002FC00EB2DF0E0E130A0E0FA0729F40E94D90BD5
:10030C00E4E8F0E035C0E230A0E0FA0729F40E94FE
:10031C00D90BE8E8F0E02CC0E330A0E0FA0729F4B0
:10032C000E94D90BECE8F0E023C0E430A0E0FA071F
:10033C0029F40E94D90BE0E9F0E01AC0E530A0E006
:10034C00FA0729F40E94D90BE4E9F0E011C0E63079
:10035C00A0E0FA0729F40E94D90BE8E9F0E008C004
:10036C00E730A0E0FA0751F40E94D90BECE9F0E079
:10037C00FA93EA9380E00E948B0A2496EDE00E94A7
:10038C00D10B0E94D90BE0EAF0E0FA93EA93E52D49
:10039C000E94CB0BE42D0E94CB0BE72D0E94CB0BC4
:1003AC00E0916D02F0916E0260916F02709170029B
:1003BC000E949A1080E10E948B0A6496E0E0EA9316
:1003CC00A1E00E94A006A1E7B2E00E94DF06A0E037
:1003DC000E94BF06A0E6B2E00E94DF0636CFE09195
:1003EC008202E03009F06EC0BB2019F0E7E0EB159B
:1003FC0010F4E1E0BE2E882011F4E1E08E2EEFE146
:10040C00E815B0F4E1E0E91591F0E3E0E91579F0D5
:10041C00E5E0E91561F0E7E0E91549F0E8E0E915F8
:10042C0031F0EAE0E91519F0ECE0E91509F401C046
:10043C0003C0E1E08E2E9394EEE1E81568F4E4E05D
:10044C00E91549F0E6E0E91531F0E9E0E91519F0B4
:10045C00EBE0E91509F401C003C0E1E08E2E9394A2
:10046C00ECE1E81570F4E2E0E91559F40E94B40BE4
:10047C000E94C20BFA93EA93A1E0B0E024D030972B
:10048C0009F003C0E1E08E2E9394992011F4E1E081
:10049C009E2EECE0E91518F4E1E09E2E6394E3E661
:1004AC00E61530F466240E94B40BEF5F0E94BD1079
:1004BC000E94B40BE43630F06624A0E0B0E0E0E03B
:1004CC000E94BD100895BA93AA93E881F981E13096
:1004DC00A0E0FA0761F40E94DE0B309721F4E1E012
:1004EC00F0E00C946307E0E0F0E00C946307E2307A
:1004FC00A0E0FA0771F40E94DE0BE330A0E0FA07EB
:10050C0021F4E1E0F0E00C946307E0E0F0E00C94FF
:10051C0063070C946307BA93AA9360970E94D81050
:10052C00EE8DFF8D31970E94E50BEA8BFB8B6C8B6C
:10053C007D8BED8DF0E031978F01AA89BB898C8979
:10054C009D890E94EA0B0E94190FDF01CB01EC8DF3
:10055C00F0E00E94E50B0E94EF0BAE8DBF8DE4E046
:10056C00F0E00E944310309709F07CC0F801E130B4
:10057C00A0E0FA0729F40E94F60B0E94FB0B6DC059
:10058C00E230A0E0FA0739F40E94F60BA0E0B0E0EC
:10059C0080E792E462C0E330A0E0FA0739F40E94ED
:1005AC00F60BA0E0B0E086EB92E457C0E430A0E09C
:1005BC00FA0739F40E94F60BA0E0B0E082EF92E467
:1005CC004CC0E530A0E0FA0739F40E94F60BA0E02D
:1005DC00B0E088E193E441C0E630A0E0FA0739F4DA
:1005EC000E94F60BA0E0B0E086E393E436C0E7305F
:1005FC00A0E0FA0739F40E94F60BA0E0B0E085E524
:10060C0093E42BC0E830A0E0FA0739F40E94F60B13
:10061C00A0E0B0E084E793E420C0E930A0E0FA0762
:10062C0039F40E94F60BA0E0B0E089E893E415C021
:10063C00EA30A0E0FA0739F40E94F60BA0E0B0E82B
:10064C0088E993E40AC0EB30A0E0FA0751F40E9469
:10065C00F60BA0E0B0E887EA93E40E94C90E0E9472
:10066C00000C7BC0F801E130A0E0FA0729F40E94ED
:10067C00F60B0E94FB0B6DC0E230A0E0FA0739F4D8
:10068C000E94F60BA0E0B0E08CE692E462C0E3308E
:10069C00A0E0FA0739F40E94F60BA0E0B0E084EB7E
:1006AC0092E457C0E430A0E0FA0739F40E94F60B4C
:1006BC00A0E0B0E080EF92E44CC0E530A0E0FA0797
:1006CC0039F40E94F60BA0E0B0E087E193E441C05E
:1006DC00E630A0E0FA0739F40E94F60BA0E0B0E097
:1006EC0085E393E436C0E730A0E0FA0739F40E94C2
:1006FC00F60BA0E0B0E084E593E42BC0E830A0E07A
:10070C00FA0739F40E94F60BA0E0B0E083E793E41B
:10071C0020C0E930A0E0FA0739F40E94F60BA0E003
:10072C00B0E888E893E415C0EA30A0E0FA0739F4A1
:10073C000E94F60BA0E0B0E088E993E40AC0EB302D
:10074C00A0E0FA0751F40E94F60BA0E0B0E087EAB3
:10075C0093E40E94C90E0E94000C0E94F60BA0ECC0
:10076C00B4E98DE598E40E94C20E0E94000C0E9430
:10077C00050C0E940D0C0E94C90EDE011A960E94F7
:10078C00580E0E947F100E94050CDE0116960E94E6
:10079C00580E0E947F10EE81FF81688579850E943A
:1007AC008F0EA0E0B0EA86EB93E40E94190FA0E054
:1007BC00B0E080E89EE30E94C90E0E94120C0E94D9
:1007CC00170C0E94000C0E941C0CE330A0E0FA07EE
:1007DC00A0E06A07A0E07A0731F40E94F60B0E94B1
:1007EC000D0C0E94EF0B0E94120CE0E0F0E068EAA6
:1007FC0073E40E94AC0F58F02CE030E00E94F60B32
:10080C00A0E0B0E088EA93E40E94270CE6C00E94C6
:10081C00120CE0E0F0E069E973E40E94AC0F58F0D0
:10082C002BE030E00E94F60BA0E0B0E089E993E405
:10083C000E94270CD2C00E94120CE0E0F0E06AE8A3
:10084C0073E40E94AC0F58F02AE030E00E94F60BE3
:10085C00A0E0B0E08AE893E40E94270CBEC00E949E
:10086C00120CE0E0F0E066E773E40E94AC0F58F085
:10087C0029E030E00E94F60BA0E0B0E086E793E4BC
:10088C000E94270CAAC00E94120CE0E0F0E068E580
:10089C0073E40E94AC0F58F028E030E00E94F60B95
:1008AC00A0E0B0E088E593E40E94270C96C00E947B
:1008BC00120CE0E0F0E06AE373E40E94AC0F58F035
:1008CC0027E030E00E94F60BA0E0B0E08AE393E46E
:1008DC000E94270C82C00E94120CE0E0F0E06BE159
:1008EC0073E40E94AC0F58F026E030E00E94F60B47
:1008FC00A0E0B0E08BE193E40E94270C6EC00E9454
:10090C00120CE0E0F0E068EF72E40E94AC0F58F0DB
:10091C0025E030E00E94F60BA0E0B0E088EF92E416
:10092C000E94270C5AC00E94120CE0E0F0E06AEB27
:10093C0072E40E94AC0F58F024E030E00E94F60BF9
:10094C00A0E0B0E08AEB92E40E94270C46C00E9423
:10095C00120CE0E0F0E068E772E40E94AC0F58F093
:10096C0023E030E00E94F60BA0E0B0E088E792E4D0
:10097C000E94270C32C00E94120CE0E0F0E068EFFD
:10098C0071E40E94AC0F48F022E030E00E94F60BBC
:10099C000E94FB0B0E94270C20C00E94120C0E948C
:1009AC00D21044F421E030E00E94F60B0E94580E65
:1009BC00AF0113C00E94F60B0E94CE1071F40E947E
:1009CC001C0C0E94CE1029F00E942D0C4DE150E021
:1009DC0004C00E942D0C4EE150E04130E0E05E0777
:1009EC000CF072C0F901E130A0E0FA0799F40E9412
:1009FC002D0CEA85FB85FA93EA93A2E0B0E063DD67
:100A0C00E130A0E0FA0719F44EE150E002C04DE1EC
:100A1C0050E05AC0E230A0E0FA0729F421E030E0BF
:100A2C004FE150E051C0E330A0E0FA0729F422E096
:100A3C0030E04FE150E048C0E430A0E0FA0729F480
:100A4C0023E030E04FE150E03FC0E530A0E0FA0792
:100A5C0029F424E030E04FE150E036C0E630A0E06D
:100A6C00FA0729F425E030E04FE150E02DC0E730E3
:100A7C00A0E0FA0729F426E030E04FE150E024C072
:100A8C00E830A0E0FA0719F427E030E01BC0E930A9
:100A9C00A0E0FA0719F428E030E014C0EA30A0E036
:100AAC00FA0719F429E030E00DC0EB30A0E0FA07AA
:100ABC0019F42AE030E006C0EC30A0E0FA0721F48B
:100ACC002BE030E04EE150E0EA85FB85AA8DBB8D32
:100ADC00ED93FC93A88DB98D2C93AE89BF894C9363
:100AEC000E94DF10A0960895AA931A930A93EA81A4
:100AFC00EE0FEE0FEE0FE0640E2F10E0183060F4E6
:100B0C000A930395EC81FD813196EC83FD8331973B
:100B1C00A49108D11F5FF2CF0C949B07AA93EA8192
:100B2C00E370EA83E981E03019F0EA81E061EA835D
:100B3C00E881E03019F0EA81E068EA830E943C0C1D
:100B4C00A7E00E949B0DAA810E94410C41C1BA935F
:100B5C00AA930E943C0CA0E00E94410C0E94450C00
:100B6C000E944D0C0E94540C0E945A0CAE2F0E94F5
:100B7C00BF0AAC81BD81EC930E94760D65C0BA931F
:100B8C00AA930E943C0CA3E00E94410C0E94450CCD
:100B9C00AE81BF81EC930E94540CAC81BD81EC936F
:100BAC000E94540C0E945A0C0E944D0C0E94760D0F
:100BBC0028960895BA93AA931A930E94BD0DE0301B
:100BCC0011F4E0E004C1E981FA81309781F0A5E5E8
:100BDC000E94030E10E0A981BA81ED91A983BA831A
:100BEC00AE2F0E94030E1F5F1830A8F303C0ACECAD
:100BFC000E94030EE1E0EBC0BA93AA930E94DA10B4
:100C0C00AC81BD81D7DFE03011F4E0E01BC0AEEB6E
:100C1C000E94030E10E024E632E03F932F932F5FE7
:100C2C003F4F0E94FE0DAF91BF91EC931F5F1930A7
:100C3C00A0F3E4E6F2E0FA93EA93A9E00E940D0E29
:100C4C000E94E70F0E94E11026960895BA93AA938A
:100C5C001A93A981BA81D0DFE03019F40E94600C9C
:100C6C00B6C0E0916802E295EF70E695E3701E2F36
:100C7C00A981BA819FDFE03019F40E94600CA7C0F3
:100C8C00A4E40E94030EE12FACE5B0E0F0E0EE0F1F
:100C9C00FF1FEA0FFB1F0E9488100E94B30DA98151
:100CAC00BA81AADFE03019F40E94600C90C00E9457
:100CBC00BD0DE12FA4E6B0E0F0E0EE0FFF1FEA0F50
:100CCC00FB1F0E948410A0916402B0916502EA237C
:100CDC00FB230E94E50BA0E0B0E080E89DE30E94BE
:100CEC00190F75C0AA93E8B3EF70AE2FE881E07FBF
:100CFC00EA2BE8BB8DE08A95F1F7C39A8DE08A95D3
:100D0C00F1F7C3988DE08A95F1F791C0AA93A88169
:100D1C00E9DFE881E295E883A881E4DF85E88A953C
:100D2C00F1F785C0AA93A981F1DFC19AA881EEDF02
:100D3C00C1980FC0AA93E881F0E0ED57FD4FE08118
:100D4C00A981AE0FE3DFE981E0938702E881E093AC
:100D5C00880222960895A2E00E94650CACE0D6DFD2
:100D6C00A1E00E94650CE0E0E0938802E09387022A
:100D7C000895AA93A881AA3031F0E0918902A0913C
:100D8C008702AE1760F0E0E0EA93A0918802AF5FB3
:100D9C00A0938802CFDFA881AA3009F448C0E09163
:100DAC008702EF5FE0938702C19AA881AFDFC198F9
:100DBC003EC0BA93AA931A93A981BA81ED91A983E3
:100DCC00BA831E2FE03019F0A12FD3DFF5CF188195
:100DDC0023960895AA93E7B3E06FE7BBBB9AB99A41
:100DEC00BA9AC398C198C298E881E0938902E058F6
:100DFC00E0938502E881E054E0938602A4E1B0E040
:100E0C000E94B30D0E946B0C0E946B0C0E946B0C29
:100E1C00A0E268DF88EC90E00197F1F7A8E276DFBA
:100E2C00A4E074DFA5E872DFA6E070DF94DF219602
:100E3C0008950E949F107B816A81F981E88177FB7C
:100E4C00770F67FD7160972F9E5781F078F098317E
:100E5C0090F4AA27BB27882708948795B795A79560
:100E6C009A95D1F7EA23FB23682305C0E8947727EA
:100E7C00EE27FF2766276F77769508F4606877F979
:100E8C00A991B99189919991EA17FB07680779079C
:100E9C0097FB08950E949F100E9490100E941F07BC
:100EAC000E94951019F40E948B1007C0E6F70E945F
:100EBC008B100E940D0C0E94C20E24960895BA93BA
:100ECC00AA931A930A93AA81BB8112960E94751059
:100EDC00309729F1AA81BB8114960E9475108F015D
:100EEC00309761F00230E0E01E0780F0F801319796
:100EFC008F01AA81BB811496ED93FC93AA81BB81CF
:100F0C0012960E94730C3197AC81A083AA81BB818D
:100F1C000E947510FF2312F00E94730C06C0AA8168
:100F2C00BB81EFEFFFEFED93FC93198108812596C0
:100F3C0008950E94790CE0E8EA83EFE3EB830E94CA
:100F4C00DA10EE85FF85EF3FAFEFFA0749F4E8853D
:100F5C00F985FA93EA93AAEBB0E00E948E0BB7C026
:100F6C00EF3FAFE7FA0749F4E885F985FA93EA937E
:100F7C00ABEBB0E00E948E0BAAC0AB85A73010F093
:100F8C00E6E0EB871B85E12F1150E03019F00E9451
:100F9C00800CF9CFEC85FD856E857F850E94CE1087
:100FAC0021F430E00E94800C2DC03B850E948F0CF8
:100FBC0009F008F40BC00E94800C0E948F0C28F0E2
:100FCC000E949A0C0E949F0CF8CF0DC00E948F0CAF
:100FDC0040F40E949A0C0E94AB0C0E94B20C31504F
:100FEC00F5CF0E94800CEC85FD856E857F850E9477
:100FFC00B70C0E94B20C0E948F0C20F00E949A0C2D
:10100C000E949F0C10E0EB85E117A8F1AC81BD812B
:10101C008E819F810E94BE0C0E94B70CDF01CB0118
:10102C000E945007EC83FD836E837F830E949A0C91
:10103C000E94670F0E94560E0E2F0E94C50C0E9434
:10104C00CC0CFF27662777270E948F0EAC81BD81C1
:10105C008E819F810E94190F0E949A0C0E94170C7E
:10106C000E94B20CE12F1F5FE03069F60E94C50CA4
:10107C00EEE2EC93C8CF0E94D10C3197AA85A083E5
:10108C0030302CF43195A885B985EDE203C0A885E4
:10109C00B985EBE2EC930E94D10C0E94D10C3197F4
:1010AC00BF01A32FEAE00E94FA0FE05DDB01EC9395
:1010BC000E94D10C3197BF01A32FEAE00E94371098
:1010CC00E05DDB01EC93A885B985E0E0EC930E9430
:1010DC00E11060960895BA93AA93EF9761970E94D6
:1010EC00D81010E0FE01E85AFF4F0190F081E02D7E
:1010FC00E887F987FE01EA5AFF4F0190F081E02D55
:10110C00EE83FF83AE81BF81E0E0F0E0ED93FC93D2
:10111C00DE01A45ABF4F0E94730C3197E4912E2F1D
:10112C00E03009F4E9C1E12FE03039F4253211F453
:10113C0011E002C00E94D70CDEC1E130C1F42532AF
:10114C0019F40E94D70CD6C112E0E0E0ED8B00E060
:10115C002D3211F401E0CFC12B3219F4EBE2ED8BFF
:10116C00CAC1203219F4E0E2ED8BC5C102C0E230F5
:10117C0039F450E013E0203311F40068BCC102C014
:10118C00E33091F4203310F02A3308F007C0AAE0C2
:10119C005A9F502DE22FE0535E0FADC140E02E322E
:1011AC0011F414E0A8C10FC0E43099F4203310F00E
:1011BC002A3308F008C00062AAE04A9F402DE22FB3
:1011CC00E0534E0F98C12C3619F4026015E093C110
:1011DC0003C0E53009F08FC1E22FE33659F40E94C9
:1011EC00DE0C0E94E50C0E94DE0CA481AA930E94E6
:1011FC00EC0C80C1E53411F0E53609F403C0E63699
:10120C0009F048C0FE017696EE87FF870E94F20C2B
:10121C000E9479100E94F90C0E94FE0CAD85AA2345
:10122C0032F0AD89AB3259F0A03281F017C00E9478
:10123C00000D0E94230E0E94F90CEDE2ED8B07FFCE
:10124C0005C0ED89EA930E94EC0C08C0EE85FF8581
:10125C003196EE87FF873197AD89A08305FF46E075
:10126C00263651F40E94000D0E949A104A93AB89C5
:10127C00BC890E94CC0A09C00E94000D0E949A10E1
:10128C004A932A93AC89BD8954DEFE0176960E945E
:10129C00050D1EC0E33739F40E94FE0C0E940D0DA3
:1012AC000E94050D0EC0E037C1F40E94FE0C0E9496
:1012BC000D0DEE87FF87AE85BF850E94A70B1E2FF5
:1012CC0008600F77403011F0411708F001C0142F5F
:1012DC0040E0E0E0EC8B30E06DC0E43611F0E93634
:1012EC0011F4046002C0E537A1F4EAE0EC8B01FFD5
:1012FC0008C0E0E0FAEC6AE97BE30E94120D1AE008
:10130C0022C0E0E1F7E260E070E00E94120D15E00F
:10131C001AC0E83511F4086003C0E83709F0EAC0D8
:10132C00E0E1EC8B01FF08C0E0E0F0E060E070E190
:10133C000E94120D18E007C0E0E0F0E160E070E000
:10134C000E94120D14E0403011F00F7701C041E003
:10135C0001FF08C00E94FE0C0E94F20C14960E9421
:10136C0079100FC002FF07C00E94FE0C0E940D0DE9
:10137C000E94E20F06C00E94FE0C0E940D0D662713
:10138C007727EA87FB876C877D8702FF12C0AD85C4
:10139C00AA2342F40E94000D0E94D40F0E94F90C63
:1013AC00EDE2ED8BED89E03019F01F5F4F5F01C06E
:1013BC000B7F342F00FD14C0151710F4351708F0EF
:1013CC000FC007FF08C002FF04C00B7F2D8911500E
:1013DC0001C020E301C020E20E94D70C5150ECCF99
:1013EC00141790F4006102FF06C00E94170D09F05B
:1013FC00515011504150E0E3EA930E94EC0C5030F4
:10140C0009F051504150ECCF312FEC89E030B9F458
:10141C003030A1F003FF06C0EE85FF852591EE87E5
:10142C00FF8705C0AE85BF852D91AE87BF870E9413
:10143C00D70C503009F051503150EACF51C00E94B6
:10144C00290D0E9412102E2F2A3030F003FF02C0FB
:10145C00295C01C0295A01C0205D04FD21C0213343
:10146C0060F4A889B9898A899B89A130E0E0BE071C
:10147C00E0E08E07E0E09E0709F40BC0431740F450
:10148C00531710F000FF01C010C020E207FF08C086
:10149C0020E3006102FF04C00E94170D09F05150B7
:1014AC000E94D70C503009F0515031500E94290D38
:1014BC000E9451100E94F90CEC89A889B9898A897B
:1014CC009B89FF27662777270E9412100E94120D16
:1014DC00E889F9896A897B890E94CE1009F0AFCF1F
:1014EC0000FF08C0503031F05150E0E2EA930E9406
:1014FC00EC0CF8CF10E00CCEAE81BF810E947510C1
:10150C000E94DF10EF966F960895FF92F82E2697A3
:10151C000E94DA100E94320D309719F4EFEFFFEFB2
:10152C0023C0DE0116960E94CC0F8D010E94320D55
:10153C00EE83FF83E0E0E887E987DE011A960E94DC
:10154C00CC0F0E947510FA93EA931A930A93E5E66E
:10155C00F7E0FA93EA93DE011A96BDDD9F01AE81A6
:10156C00BF81E0E0EC93F9010E94E1102A96FF9014
:10157C000895AA93E881E295EF70AE2FAA0FAA0FF7
:10158C00EA0FEE0FA991AF70EA0F08950E94790C43
:10159C00E0E0EA83EFE3EB831A930A93EB85FC8597
:1015AC00EF3FAFEFFA0739F40E94390DA2ECB0E02F
:1015BC000E948E0BA9C0EF3FAFE7FA0739F40E94E7
:1015CC00390DA3ECB0E00E948E0B9EC0AC85AA2313
:1015DC0062F4E985FA856B857C850E94230E0E9456
:1015EC003E0D0E94430DEDE2EC93A885A73010F060
:1015FC00E6E0E8871885E12F1150E03039F00E94C1
:10160C004A0D0E94BE0C0E944F0DF5CF0E94540D46
:10161C000E94C90E0E943E0D10E0E0E0F0E060E890
:10162C007FE30E944F0D0E94540D0E94AC0F88F076
:10163C000E944A0D0E94AB0C0E944F0D1F5F173287
:10164C0038F00E94390DA7ECB0E00E948E0B5CC004
:10165C00EACF103029F40E94430DE0E3EC9329C04B
:10166C00E12F1150E03029F10E944A0D0E94BE0C6E
:10167C000E94B70CDF01CB010E9450070E944F0D56
:10168C000E94540D0E94670F0E94560E0E2F0E944E
:10169C00430D0E94CC0CF0E00E944A0D0E94E50B19
:1016AC000E94190F0E945D0D0E94170C0E943E0DA6
:1016BC00D7CFE885E03021F10E94430DEEE2EC93A8
:1016CC00E885E150E887EF5FD9F00E945D0D0E943C
:1016DC00AB0C0E943E0DE985FA856B857C850E94DA
:1016EC00560E0E2F0E94430D0E94CC0CF0E00E946F
:1016FC005D0D0E94E50B0E94170C0E943E0DE0CF81
:10170C00AE81BF81E0E0EC93198108812D9608959C
:10171C00BA93AA93E991F991A991B991CD01059048
:10172C000D920020E1F7FC010895BA93AA93A991B8
:10173C00B991EE27FF276D91662311F03196FBCFFF
:10174C000895BA93AA93AA27BB27E991F99105901A
:10175C00002011F01196FBCFFD010895A0E0B0E040
:10176C000E94B1100895E1E7F2E0FA93EA93E4E7FE
:10177C00F0E0FA93EA930895A4E6EA9FF001DF0102
:10178C00E62DF0E0EA0FFB1F0895FF276627772769
:10179C000E949A100895EA93A0E00E94A006A1E787
:1017AC00B2E00C94DF06E1E7F2E0FA93EA930895D5
:1017BC00AA81BB81E4E0F0E00E94431008950E94EE
:1017CC00E20F0E948F0E0895E0E0F0EA66EB73E4FE
:1017DC0008950E94C90EEE87FF87688B798B089558
:1017EC00EE85FF85688979890895A0E0B0E088EFDF
:1017FC0091E40895EE87FF87688B798B0895AE8509
:10180C00BF8588899989E0DF0E94670F0895A0E061
:10181C00B0E080E89FE30895AE85BF8588899989FB
:10182C0008950E94A4100E94C20E0895AA85BB853B
:10183C008C859D85E4E0F0E060E070E00E9455103E
:10184C0008950E94C20E0E94580EAF010895EA85B9
:10185C00FB856C857D85E150F04060407040EA87E7
:10186C00FB876C877D872CE030E008950E94670D24
:10187C00A0ED0C949B0D0E949B0D0C94760D0E9478
:10188C00670DA1ED0E949B0DA1E00C94800DAE2F75
:10189C000E94BF0AA881B981EC930895A1E00E942F
:1018AC00800DAE2F0C94BF0AAA81BB81EC93A0E0F3
:1018BC000C94800DE0E0FCE36CE176EC08950E9462
:1018CC008C06A3E0B0E00C94B30DA0E30E94780664
:1018DC0088EC90E00197F1F70895ED91FD91319628
:1018EC00FE93EE930895BA93AA932497E0E0E883CD
:1018FC00E9830895AC81BD818E819F81E0E0F0E0A9
:10190C0060E271E40E94190FEC83FD836E837F8388
:10191C000895EC81FD816E817F81AC85BD858E85BE
:10192C009F850E94AC0F0895AC85BD858E859F85E3
:10193C000895EDECFCEC6CEC7DE30E94190FEC8748
:10194C00FD876E877F873F5F0895E0E0F0E060E2FF
:10195C0071E40E94190F0895EC87FD876E877F87CD
:10196C000895A0E0B0E080E09FE30E94C90E0895C6
:10197C00EDECFCEC6CEC7DE30E94190F0895A8854E
:10198C00B9851196A887B98711970895E02FE05D66
:10199C00EC93E02F0895E885F9853196E887F9876F
:1019AC0008952A93AF81B885E985FA85099508953C
:1019BC00FE01E65AFF4F0190F081E02D0895349717
:1019CC00DE01A65ABF4FED93FC930895AF81B88505
:1019DC00E985FA8509950895DE01A65ABF4F0D9049
:1019EC00BC91A02D0895EA87FB876C877D870895AD
:1019FC00DFDFE5CFEA85FB856C857D850895EE8775
:101A0C00FF87AE85BF850E949B0B1E2F0895E4DFD8
:101A1C0014960E9475100895E88BF98B6A8B7B8B5A
:101A2C0008950B7FED89EA93DE01A95ABF4F0D9003
:101A3C00BC91A02DFE01E75AFF4F0190F081E02DE3
:101A4C00099550300895E889F9896A897B89AA85B6
:101A5C00BB858C859D850895DE011C960E94CC0F5C
:101A6C000E9475100895EE81FF81FA93EA93089510
:101A7C00E987FA876B877C870895AE81BF811196C1
:101A8C00AE83BF8311970895AA81BB818C819D8100
:101A9C000895EA83FB836C837D830895EA81FB813F
:101AAC006C817D81A985BA858B859C850895A985D6
:101ABC00BA858B859C850895A898A998A09AA19819
:101ACC0015C0A198A098EE270000999B0895989BAB
:101ADC00089504D0A19A02D0A09AE1E06DE007C06D
:101AEC00A19AA09A03D0A098F9DFA1986BE16A950E
:101AFC00F1F7089578E0A098F1DF989BFECFEEDF28
:101B0C00889499990894A09AF1DFEE1F7A9599F729
:101B1C007A2F772311F4A19801C0A19ADFDFA09846
:101B2C00E5DFA09ADBDFA198D9CF78E0AA0F10F4FB
:101B3C00A19801C0A19ADADFA098D0DF989BFECFC4
:101B4C00CDDFA09A7A9591F7A198C8DFA098CEDF47
:101B5C00E1E09999EE27A09AC1CF109639F080ED6B
:101B6C0097E00197F1F7A8951197C9F70895EE271B
:101B7C00C098B89A80EC93E00197F1F7B89885E299
:101B8C008A95F1F7B09B08958BEC8A95F1F7B09B91
:101B9C00E1E08CE093E00197F1F70895B89A85E0C5
:101BAC008A95F1F7B8988DE18A95F1F78894B099F8
:101BBC000894E79585ED8A95F1F70895E894B89A1D
:101BCC0085E08A95F1F770FDB89883E28A95F1F774
:101BDC00B09903C070FF03C0089570FF089588EC9E
:101BEC008A95F1F7B8988DE08A95F1F76894089585
:101BFC0068E0D4DF6A95E9F708957A2F68E0EE275C
:101C0C00DDDF26F477956A95D9F7E3950895EE27ED
:101C1C00AA2389F08A2F68E1A881B98198E0FD9107
:101C2C007F2F7E27779508F4E627E795F6959A950A
:101C3C00B9F78A9599F722960895309760407040CD
:101C4C0009F070580895552342F4503811F4E0FF10
:101C5C0004C03196691F791F6BF050E8572711F4B7
:101C6C005F93CFC05F3F31F0660F000C57956795BF
:101C7C00752F08955F9300200AF0CFC0C8C050E8BC
:101C8C00192E1522880F991F9527550F879550E807
:101C9C00072E0522660F771F7527550F6795089538
:101CAC00689401C0E8945F93F2DF703818F07F3FBE
:101CBC0008F4A7C056E1571BAAF4519558300EF4FE
:101CCC00593030F0EFEFFFEF6FEF7FE777F91AC085
:101CDC0077275523B9F0EE0FFF1F661F771F5A9514
:101CEC00D1F710C07727583028F0EF2FF62F672F39
:101CFC005850F9CF552331F076956795F795E795C0
:101D0C005A95D1F700200AF449D15F91089568944F
:101D1C0001C0E894309760407040B1F0002426F088
:101D2C00772312F400943AD1172E7EE1112032F071
:101D3C007A95EE0FFF1F661F111CF9CFEF2FF62FB0
:101D4C00612D5F938ADF5F9108954F93AF01FD0181
:101D5C00DA01AB01BC01CA01402D012C142E4F91AC
:101D6C000895EA0FFB1F681F0895E095F0956095A4
:101D7C00EF5FFF4F6F4F08955F9381DF903871F1E4
:101D8C0050E8152604C05F937ADF903839F170382B
:101D9C0021F1572F591B2BF112F4D7DFFACF583101
:101DAC0018F0AA27BB278827583028F0AB2FB82F5C
:101DBC0088275850F9CF552329F08695B795A795C4
:101DCC005A95D9F7502D512572F0CBDF38F4679521
:101DDC00F795E795739513F420C0B7DF3EDF5F915D
:101DEC000895D8F7FBCFEA1BFB0B680B51F010F4EE
:101DFC000094BBDF662392F3EE0FFF1F661F7A95EC
:101E0C00CBF7EE27FF27662777275F910895EFEF33
:101E1C00FFEF6FE77FEF5F910895EFEFFFEF6FE755
:101E2C007FE75F9108955F932ADF703851F3903804
:101E3C0041F301240894791F23F41CF300203AF396
:101E4C00ECCF0F921F932F933F934F931127222781
:101E5C009927689FA0018F9F302D410D591F6B9FB3
:101E6C00300D411D591F8E9F27D0BF9F25D06A9FD3
:101E7C0023D0BE9F1DD0AF9F1BD0AE9F110D291F2D
:101E8C00391F491F591FE32FF42F652F522F4F91E4
:101E9C003F912F911F910F9066232AF0550FEE1F43
:101EAC00FF1F661F02C073954BF2CDDE5F91089544
:101EBC00100D211D391F02C0200D311D491F591F46
:101ECC0008955F93DCDE703821F411200AF49FCF63
:101EDC00A4CF903809F495CF01240894970B1BF4E8
:101EEC00D4F30020F3CF792F1F932F933F934F936D
:101EFC0011241127222733274427552790E2AE17A8
:101F0C00BF078607410730F0AE1BBF0B860B410B9A
:101F1C00089401C08894551F221F331F111CAA1F3F
:101F2C00BB1F881F441F9A9551F7F901612D4F91E2
:101F3C003F912F911F91662332F0550FEE1FFF1F1B
:101F4C00661F7A9543F27FDE5F91089599239AF08C
:101F5C00772342F0971748F029F4AE17BF0786078E
:101F6C0020F031F0989488940895989408940895EA
:101F7C001894889408957723C2F7971798F3A9F7C4
:101F8C00EA17FB07680788F399F3ECCF0024AF0D31
:101F9C00B01D0895F195E195F0400895F095609588
:101FAC007095E195FF4F6F4F7F4F0895FE2FFF0FF8
:101FBC00FF0B6F2F7F2F08956F2F660F660B762FF9
:101FCC000895EE23E1E009F0EE270895002498E04F
:101FDC00AA0F001C0E1A10F40E0E01C0A1609A95E7
:101FEC00B9F7EA2FA02D08956ED0F0DF0EF4E1952D
:101FFC0008950024112490E1AA0FBB1F001C111C92
:10200C000E1A1F0A18F40E0E1F1E01C0A1609A951D
:10201C0099F7FD01D00108953F934F935F930024EE
:10202C0011244427552730E2AA0FBB1F881F991F84
:10203C00001C111C441F551F0E1A1F0A460B570B70
:10204C0028F40E0E1F1E461F571F01C0A1603A95A3
:10205C0059F7FD01BC01D001CA015F914F913F912D
:10206C000895E894A7FF02C0A1956894E7FDE19557
:10207C00ADDFEA2F0EF4E1950895E894B7FF04C0A4
:10208C00A095B09511966894F7FD84DFB2DFFD0141
:10209C000EF480DF0895C0DFFD01BC010895E894C3
:1020AC0097FF09C0A095B09580959095AF5FBF4FF5
:1020BC008F4F9F4F689477FD71DFAEDFFD01BC0140
:1020CC000EF46CDF0895E894E7FF02C0E195689484
:1020DC00A7FF04C0A19500F8039400FA0895ED91B0
:1020EC00FC9111970895ED91FD916D917C91139751
:1020FC000895ED93FD936D937C9308950590F49161
:10210C00E02D0895A591B4910895E881F9816A8133
:10211C007B810895A881B9818A819B810895E88388
:10212C00F9836A837B8308957A936A93FA93EA938B
:10213C0008959A938A93BA93AA930895182E862F8A
:10214C00612D192E972F712D1B2EBF2FF12D1A2EAD
:10215C00AE2FE12D0895E199FECFFF93FFB7F894D0
:10216C00AEBBBFBBE09AEDB3FFBFFF910895E19BFF
:10217C0002C0A895FCCF9FB7F894AEBBBFBBE09A4A
:10218C008DB3E81719F0EDBBE29AE19A9FBF089561
:10219C00309760407040089500240A160B0608061C
:1021AC00090608955A934A933A932A931A930A93D9
:1021BC0008955D814C813B812A81198108810895A4
:00000001FF
